:100000000C943C010C94D0020C9447120C94CF1425
:100010000C9459010C9459010C9459010C945901F8
:100020000C9459010C9459010C9459010C945901E8
:100030000C9459010C946F0F0C94940F0C9459016B
:100040000C9459010C9459010C9459010C945901C8
:100050000C9459010C9459010C9459010C945901B8
:100060000C94FE0B0C945901520C350C350C350CCC
:10007000350C350C350C350C5D0C350C350C350C50
:10008000350C350C350C350C5D0C350C350C350C40
:10009000350C350C350C350C680C350C350C350C25
:1000A000350C350C350C350C520C350C350C350C2B
:1000B000350C350C350C350C680C350C350C350C05
:1000C000350C350C350C350C520C350C350C350C0B
:1000D000350C350C350C350C820C350C350C350CCB
:1000E000350C350C350C350C8D0C350C350C350CB0
:1000F000350C350C350C350C520C350C350C350CDB
:10010000350C350C350C350C980C350C350C350C84
:10011000350C350C350C350C460C350C350C350CC6
:10012000350C350C350C350CA50C350C350C350C57
:10013000350C350C350C350CA50C350C350C350C47
:10014000350C350C350C350CA50C350C350C350C37
:10015000350C350C350C350CA50C350C350C350C27
:10016000350C350C350C350CDD0C350C350C350CDF
:10017000350C350C350C350C610C350C350C350C4B
:10018000350C350C350C350CDD0C350C350C350CBF
:10019000350C350C350C350C610C350C350C350C2B
:1001A000350C350C350C350CB40C350C350C350CC8
:1001B000350C350C350C350CC70C350C350C350CA5
:1001C000350C350C350C350CC70C350C350C350C95
:1001D000350C350C350C350C1D0C350C350C350C2F
:1001E000350C350C350C350C770C350C350C350CC5
:1001F000350C350C350C350C770C8D0DBB0D020E06
:10020000190E3A0E400E750D4A0EB50EF70E060F7A
:10021000750D750D750D750D750D750D750D750DCE
:10022000750D820D170F09021200010100801909D6
:10023000040000000000000012011001FF0000088F
:10024000CAA60CA5000101020001120343007900B7
:1002500063006C00650050004F0056001603530009
:1002600049005600200044006500760069006300E4
:10027000650073000403090411241FBECFEFD8E00A
:10028000DEBFCDBF11E0A0E0B1E0EEEEF5E302C0CD
:1002900005900D92A033B107D9F725E0A0E3B1E0B6
:1002A00001C01D92A631B207E1F70E94F1140C942F
:1002B000F51A0C940000CF93DF9360917C02635099
:1002C00067FD13C0209179028CE090E0821B9109B8
:1002D000EC01C058DD4F809178028D3299F1809108
:1002E000300187FDA4C010927C028091010184FF3F
:1002F0001CC0609100016F3FC1F0693008F049C037
:100300001092000190916C0288E8892780936C021A
:100310006111B4C060E08DE692E00E94CC02D4E0AE
:100320008FEF80930001D093010194E189B1847231
:1003300031F49150D9F710927D0210927702DF913B
:10034000CF910895683079F683EC80936C028AE54A
:1003500080930101109230018881807609F081C07C
:100360008A8110927502998191119BC01092760238
:1003700025E732E082E030937B0220937A029F816E
:10038000911104C09E81981708F4892F8093000171
:10039000AACF68506093000190916C0288E8892789
:1003A00080936C0240917A0250917B0280913001DF
:1003B00086FD49C0FA01819180936D0227E0CCE06F
:1003C00068E0808180936E022130E1F0818180932A
:1003D0006F022230B9F0828180937002233091F055
:1003E000838180937102243069F08481809372024A
:1003F000253041F0858180937302263019F0868183
:100400008093740230E02F5F3F4FCA01820F931F29
:10041000DC2F90937B0280937A028DE692E00E941B
:10042000CC02CC3009F07CCFD09301017ECFCE013D
:100430000E94260F8F3F09F443C0882309F453CF4D
:100440001092000150CFCCE068E0ADE6B2E0FA01D6
:10045000862F94919D9331968150D9F72FEF260FD7
:10046000D1CFCE010E94660D8F3F09F088CF9881D1
:1004700097FD2AC090E89093300188CFC4E0C60F62
:1004800040917A0250917B028091300186FDDDCF50
:10049000FA01819180936D022FEF260F09F091CF21
:1004A000B1CF953099F0963009F19830D9F0993064
:1004B00099F081E09A3009F080E025E732E05BCFE7
:1004C0008EE1809301010FCF8E81D4CF80937D0286
:1004D00025E732E080E04FCF80937F0225E732E0CE
:1004E00080E049CF2FE732E081E045CF9B8191301A
:1004F00049F09230C9F0933069F080E090E4909335
:1005000030013DCF88E392E090937B0280937A02A2
:1005100082E1F4CF811110C084E792E090937B02D6
:1005200080937A0284E0EACF86E292E090937B02A5
:1005300080937A0282E1E2CF813051F08230E9F695
:100540008AE492E090937B0280937A0282E1D6CF94
:100550008CE592E090937B0280937A0288E1CECF83
:10056000E9E6F0E0808182608083E89A0895A82F10
:10057000B92F80E090E041E050EA609530E009C09A
:100580002D9182279795879510F084279527305EC7
:10059000C8F36F5FA8F30895EADF8D939D930895E4
:1005A000CF93CFB7CF93C3954D9BE9F74D9B09C030
:1005B0004D9B07C04D9B05C04D9B03C04D9B01C08B
:1005C000A1C0DF93C0917902DD27C058DD4F4D9B5C
:1005D00002C0DF91EBCF2F930F931F9309B12FEF41
:1005E00005FB20F94F933F9319B14FEF012705FB0E
:1005F00021F93BE031C04E7F012F19B1216028C0A5
:10060000102F4D7F2260000009B129C04B7F24606C
:10061000012F000019B12BC019B1477F28602AC0F3
:100620004F7E09B120612CC04F7D19B120622FC0CF
:100630004F7B09B1206432C0422709B149934FEF83
:100640000000102715FB20F919B11472C9F1297F98
:1006500091F2012705FB21F909B1237F89F231507D
:1006600058F1102715FB22F919B1277E79F20127DD
:1006700005FB23F92F7C81F209B1102715FB24F922
:100680002F7971F200C019B1012705FB25F92F73ED
:1006900059F200C009B1102715FB26F9223040F2AB
:1006A00000C019B1012705FB27F9243028F64F7740
:1006B000206819B10000F9CF11E01CBB002717C05A
:1006C0003B503195C31BD04011E01CBB0881033C5B
:1006D000E9F00B34D9F0209177021981110F121330
:1006E000EDCF093641F10D3211F0013E39F700939B
:1006F0007E023F914F911F910F912F91DF91CCB3CB
:10070000C0FD51CFCF91CFBFCF91189520917E02E0
:10071000222379F310917C02112311F5343012F168
:1007200030937C0220937802109179023BE0311BD8
:100730003093790217C000917C0201308CF40AE5F5
:100740003091010134FD10C000930101CCE6D2E0EC
:100750000FC02795A8F45150A9F4220F0000F9CF3B
:100760004AE503C042ED01C0432FC4E1D0E032E0CE
:100770001AB114625D9A1AB90BB120E414E25F93C6
:10078000012756E00BB9279520F4515021F4220F90
:10079000F9CF012756E000003B5A0BB9D0F227955C
:1007A00028F4515029F4220F0000F9CF012756E018
:1007B00027950BB920F4515021F4220FF9CF0127CE
:1007C00056E0299133230BB921F60B7D10917D0260
:1007D000110FC651D0400BB911F01093770211E000
:1007E0001CBB00621AB11B7D402F4B7D5F9100C086
:1007F00000C00BB91AB94BB97CCFCB010E94D117FD
:1008000090E0A0E0B0E080933A0190933B01A09388
:100810003C01B0933D010895AC015695479556951E
:100820004795569547958095877021E030E0082ED2
:1008300001C0220F0A94EAF7922F9095EDEEF3E0B3
:10084000E41BF50B2081922301C0660F8A95EAF71D
:10085000692B6083089527E130E0281B3109F901F5
:10086000EA52FC4F6083089520E030E0A7E1B0E059
:1008700061E070E0A90156954795569547955695C4
:100880004795FD01E41BF50B922F90959770AB01F6
:1008900001C0440F9A95EAF7942F9095EA52FC4FC5
:1008A0004081942390832F5F3F4F203C310511F707
:1008B000813009F008954198E6EDF3E04298DF01B8
:1008C0008081817098B1982B98B9429A98B180959F
:1008D000892388B9429880818695817098B1982B38
:1008E00098B9429A98B18095892388B942988081B5
:1008F00082FB882780F998B1982B98B9429A98B1D1
:100900008095892388B94298808183FB882780F964
:1009100098B1982B98B9429A98B18095892388B953
:10092000429880818295817098B1982B98B9429AAB
:1009300098B18095892388B94298808185FB882762
:1009400080F998B1982B98B9429A98B180958923EB
:1009500088B94298819186FB882780F998B1982BB5
:1009600098B9429A98B18095892388B942988C9118
:10097000807890E0880F892F881F990B98B1982B69
:1009800098B9429A98B18095892388B983E0EE3E60
:10099000F80709F093CF419A089520E030E0A7E1ED
:1009A000B0E061E070E0A9015695479556954795EE
:1009B00056954795FD01E41BF50B922F9095977086
:1009C000AB0101C0440F9A95EAF7542F5095EA52B3
:1009D000FC4F90819523492B40832F5F3F4F203C54
:1009E000310509F7813009F008954198E6EDF3E00B
:1009F0004298DF018081817098B1982B98B9429A12
:100A000098B18095892388B94298808186958170B4
:100A100098B1982B98B9429A98B18095892388B952
:100A20004298808182FB882780F998B1982B98B9E9
:100A3000429A98B18095892388B94298808183FB36
:100A4000882780F998B1982B98B9429A98B18095E7
:100A5000892388B9429880818295817098B1982BBA
:100A600098B9429A98B18095892388B94298808133
:100A700085FB882780F998B1982B98B9429A98B14C
:100A80008095892388B94298819186FB882780F9CF
:100A900098B1982B98B9429A98B18095892388B9D2
:100AA00042988C91807890E0880F892F881F990B4D
:100AB00098B1982B98B9429A98B18095892388B9B2
:100AC00083E0EE3EF80709F093CF419A0895389AF3
:100AD000399A3A9A40984198429880E090E0A7E18C
:100AE000B0E061E070E09C0136952795369527953A
:100AF00036952795FD01E21BF30B282F20952770D3
:100B0000AB0102C0440F551F2A95E2F79A014095A8
:100B1000EA52FC4F30813423232B20830196803C02
:100B2000910509F74198E6EDF3E04298DF018081F5
:100B3000817098B1982B98B9429A98B18095892381
:100B400088B9429880818695817098B1982B98B920
:100B5000429A98B18095892388B94298808182FB16
:100B6000882780F998B1982B98B9429A98B18095C6
:100B7000892388B94298808183FB882780F998B1BE
:100B8000982B98B9429A98B18095892388B9429850
:100B900080818295817098B1982B98B9429A98B1CA
:100BA0008095892388B94298808185FB882780F9C0
:100BB00098B1982B98B9429A98B18095892388B9B1
:100BC0004298819186FB882780F998B1982B98B933
:100BD000429A98B18095892388B942988C918078FF
:100BE00090E0880F892F881F990B98B1982B98B99E
:100BF000429A98B18095892388B953E0EE3EF50773
:100C000009F093CF419A08954198E6EDF3E04298B8
:100C1000DF018081817098B1982B98B9429A98B180
:100C20008095892388B9429880818695817098B192
:100C3000982B98B9429A98B18095892388B942989F
:100C4000808182FB882780F998B1982B98B9429AC5
:100C500098B18095892388B94298808183FB882741
:100C600080F998B1982B98B9429A98B180958923C8
:100C700088B9429880818295817098B1982B98B9F3
:100C8000429A98B18095892388B94298808185FBE2
:100C9000882780F998B1982B98B9429A98B1809595
:100CA000892388B94298819186FB882780F998B179
:100CB000982B98B9429A98B18095892388B942981F
:100CC0008C91807890E0880F892F881F990B98B1BC
:100CD000982B98B9429A98B18095892388B983E076
:100CE000EE3EF80709F093CF419A08958FEF8EBD3D
:100CF0000DB407FEFDCF8EB5089584B18C6284B922
:100D0000249881E08DBD80E58CBD2A9A2A988EBDFD
:100D10000DB407FEFDCF8EB52A9A2A9881E08EBDCC
:100D20000DB407FEFDCF8EB51EBC0DB407FEFDCF82
:100D30008EB52A9A2A9880E88EBD0DB407FEFDCFA5
:100D40008EB52A9A08952A9885E08EBD0DB407FEC7
:100D5000FDCF8EB58FEF8EBD0DB407FEFDCF8EB5E6
:100D60002A9A08952A9890E59EBD0DB407FEFDCFFE
:100D70009EB52A9A2A9891E09EBD0DB407FEFDCF3C
:100D80009EB58EBD0DB407FEFDCF8EB52A9A08958F
:100D90002A9808952A9A08952A988EBD0DB407FEC0
:100DA000FDCF8EB52A9A08958EBD0DB407FEFDCFF6
:100DB0008EB5089525E09FEF2A982EBD0DB407FE4D
:100DC000FDCF8EB59EBD0DB407FEFDCF8EB52A9A20
:100DD0008370833069F42A982EBD0DB407FEFDCFD1
:100DE0008EB59EBD0DB407FEFDCF8EB52A9AE4CF19
:100DF00008952A9896E09EBD0DB407FEFDCF9EB5DE
:100E00002A9A2A9892E09EBD0DB407FEFDCF9EB5AA
:100E10008EBD0DB407FEFDCF8EB57EBD0DB407FEB1
:100E2000FDCF8EB56EBD0DB407FEFDCF8EB54EBDA8
:100E30000DB407FEFDCF8EB52A9A25E09FEF2A98C4
:100E40002EBD0DB407FEFDCF8EB59EBD0DB407FEC1
:100E5000FDCF8EB52A9A8370833069F42A982EBD0F
:100E60000DB407FEFDCF8EB59EBD0DB407FEFDCFC0
:100E70008EB52A9AE4CF08952A9893E09EBD0DB4CA
:100E800007FEFDCF9EB58EBD0DB407FEFDCF8EB51E
:100E90007EBD0DB407FEFDCF8EB56EBD0DB407FE51
:100EA000FDCF8EB52115310569F0FA01240F351FEC
:100EB0009FEF9EBD0DB407FEFDCF8EB58193E21767
:100EC000F307B9F72A9A08950F931F932A9893E08E
:100ED0009EBD0DB407FEFDCF9EB58EBD0DB407FEC1
:100EE000FDCF8EB57EBD0DB407FEFDCF8EB56EBDB8
:100EF0000DB407FEFDCF8EB50115110589F0FA017D
:100F0000E20FF31F201B310B420F531F9FEF9EBDBB
:100F10000DB407FEFDCF8EB58293E417F507B9F740
:100F20002A9A1F910F9108952A9893E09EBD0DB4BF
:100F300007FEFDCF9EB58EBD0DB407FEFDCF8EB56D
:100F40007EBD0DB407FEFDCF8EB56EBD0DB407FEA0
:100F5000FDCF8EB58FEF8EBD0DB407FEFDCF8EB5E4
:100F60002A9A08952A989BE09EBD0DB407FEFDCFF6
:100F70009EB58EBD0DB407FEFDCF8EB57EBD0DB402
:100F800007FEFDCF8EB56EBD0DB407FEFDCF8EB54D
:100F90008FEF8EBD0DB407FEFDCF8EB52A9A089552
:100FA0002A9886E08EBD0DB407FEFDCF8EB52A9A35
:100FB0002A9880E68EBD0DB407FEFDCF8EB52A9A25
:100FC00025E09FEF2A982EBD0DB407FEFDCF8EB50C
:100FD0009EBD0DB407FEFDCF8EB52A9A8370833077
:100FE00069F42A982EBD0DB407FEFDCF8EB59EBDC7
:100FF0000DB407FEFDCF8EB52A9AE4CF08952A9846
:1010000096E09EBD0DB407FEFDCF9EB52A9A2A98A4
:1010100090E29EBD0DB407FEFDCF9EB58EBD0DB412
:1010200007FEFDCF8EB57EBD0DB407FEFDCF8EB59C
:101030006EBD0DB407FEFDCF8EB52A9A25E09FEF59
:101040002A982EBD0DB407FEFDCF8EB59EBD0DB402
:1010500007FEFDCF8EB52A9A8370833069F42A98F3
:101060002EBD0DB407FEFDCF8EB59EBD0DB407FE9F
:10107000FDCF8EB52A9AE4CF08952A9896E09EBDBA
:101080000DB407FEFDCF9EB52A9A2A9892E59EBD23
:101090000DB407FEFDCF9EB58EBD0DB407FEFDCF8E
:1010A0008EB57EBD0DB407FEFDCF8EB56EBD0DB401
:1010B00007FEFDCF8EB52A9A25E09FEF2A982EBD18
:1010C0000DB407FEFDCF8EB59EBD0DB407FEFDCF5E
:1010D0008EB52A9A8370833069F42A982EBD0DB498
:1010E00007FEFDCF8EB59EBD0DB407FEFDCF8EB5BC
:1010F0002A9AE4CF08952A9896E09EBD0DB407FE83
:10110000FDCF9EB52A9A2A9898ED9EBD0DB407FE94
:10111000FDCF9EB58EBD0DB407FEFDCF8EB57EBD55
:101120000DB407FEFDCF8EB56EBD0DB407FEFDCF2D
:101130008EB52A9A25E09FEF2A982EBD0DB407FEA2
:10114000FDCF8EB59EBD0DB407FEFDCF8EB52A9A9C
:101150008370833069F42A982EBD0DB407FEFDCF4D
:101160008EB59EBD0DB407FEFDCF8EB52A9AE4CF95
:1011700008952A9893E09EBD0DB407FEFDCF9EB55D
:101180008EBD0DB407FEFDCF8EB57EBD0DB407FE3E
:10119000FDCF8EB56EBD0DB407FEFDCF8EB521150A
:1011A00031054105510571F0E6E5F3E02A5A3C4F5F
:1011B0009FEF9EBD0DB407FEFDCF8EB58193E21764
:1011C000F307B9F72A9A08952A9896E09EBD0DB4C0
:1011D00007FEFDCF9EB52A9A2A989DEA9EBD0DB4C2
:1011E00007FEFDCF9EB58EBD0DB407FEFDCF8EB5BB
:1011F0007EBD0DB407FEFDCF8EB56EBD0DB407FEEE
:10120000FDCF8EB54EBD0DB407FEFDCF8EB52EBD04
:101210000DB407FEFDCF8EB52A9A08952A989DEA4F
:101220009EBD0DB407FEFDCF9EB58EBD0DB407FE6D
:10123000FDCF8EB56EBD0DB407FEFDCF8EB52A9ADB
:101240000895CF92DF92EF92FF920F931F93CF9367
:10125000DF936B017C018A01E90160FDC7C0209723
:1012600071F1C230D105A0F1F80121814081C7019F
:10127000B6010E94E408AE014250510925E09FEFFB
:101280002A982EBD0DB407FEFDCF8EB59EBD0DB4C0
:1012900007FEFDCF8EB52A9A8370833089F52A9890
:1012A0002EBD0DB407FEFDCF8EB59EBD0DB407FE5D
:1012B000FDCF8EB52A9AE4CF452B09F0A6C0DF9169
:1012C000CF911F910F91FF90EF90DF90CF900895F5
:1012D00080E090E0DC01E0E0F0E0E00FF11FBC0115
:1012E000CD016C0D7D1D8E1D9F1D4081DF91CF9125
:1012F0001F910F91FF90EF90DF90CF900C94F90623
:101300004230510508F47EC0F80133967DEA25E0AD
:101310009FEF35E08081DF0111976C912A987EBDA7
:101320000DB407FEFDCFAEB56EBD0DB407FEFDCF0B
:101330006EB58EBD0DB407FEFDCF8EB52A9A425014
:1013400051092A983EBD0DB407FEFDCF8EB59EBD56
:101350000DB407FEFDCF8EB52A9A8370833069F4F1
:101360002A982EBD0DB407FEFDCF8EB59EBD0DB4DF
:1013700007FEFDCF8EB52A9AE4CF32964230510552
:1013800048F6AE0144505109CA0196958795FC0173
:101390003296EE0FFF1F880F991F481B590B2A9892
:1013A00084E08EBD0DB407FEFDCF8EB52A9A25E0F0
:1013B0009FEF2A982EBD0DB407FEFDCF8EB59EBDC2
:1013C0000DB407FEFDCF8EB52A9A8370833009F0E5
:1013D00073CF2A982EBD0DB407FEFDCF8EB59EBDEE
:1013E0000DB407FEFDCF8EB52A9AE3CFFA014191E5
:1013F0008F010E94F906FFEFCF1ADF0AEF0AFF0AFA
:1014000021972DCFE2E0F0E0CACFCF01A0E0B0E01D
:1014100064CFCF93FC019091C00095FFFCCF109258
:10142000C6009091C00095FFFCCF1092C60090912D
:10143000C00095FFFCCF1092C6009091C00095FFB0
:10144000FCCF1092C600AB01440F551F460F571F2B
:101450004115510549F1329620E030E0CFEF9091EF
:10146000C00095FFFCCFC093C6009091C00095FFCF
:10147000FCCFDF0112978C918093C6009091C00041
:1014800095FFFCCFDF0111978C918093C60090915E
:10149000C00095FFFCCF80818093C6002D5F3F4F39
:1014A000339624173507D8F26115710571F020E0E5
:1014B00030E09FEF8091C00085FFFCCF9093C60085
:1014C000205F3F4F26173707A8F3CF910895E8E92B
:1014D000F2E0DF0112978C9311968C938083339600
:1014E00093E0E835F907A9F70895813011F4459A9A
:1014F000449A459A449A10926401109263011092A2
:101500006201109261018091B9008E7F8093B900D1
:101510008091B9008D7F8093B90087E08093B800F7
:101520008091BC0084608093BC0010926B0210928A
:101530006A028091BC0081608093BC008091BC00F5
:1015400080648093BC00789408952091B9002E7F28
:101550002093B9002091B9002D7F2093B9009C0100
:1015600040E050E060EE7EE280E090E00E94921762
:10157000822F203130F030E0205131093595279508
:10158000822F8093B80008958E7F91E0611101C091
:1015900090E0982B9093BA00089590936401809303
:1015A0006301089590936201809361010895ECEBCB
:1015B000F0E080818F70806A80830895ECEBF0E02A
:1015C00080818F70806D808308958091BC0087FF3B
:1015D000FCCF08958093BB00ECEBF0E080818F702E
:1015E000806880830895811107C08091BC008F704E
:1015F00080688093BC0008958091BC008F70806CDF
:101600008093BC0008958091BB0008958091B9003B
:10161000089520916A0230916B02232BD1F722E0CA
:1016200030E030936B0220936A028E7F80936902D0
:10163000662369F0DA01E9EEF1E02FEF260F30E0E2
:1016400026513E4F8D918193E217F307D9F71092FF
:10165000E8016093E7018091BC008F70806A8093FD
:10166000BC00089520916A0230916B02232BD1F7C0
:1016700023E030E030936B0220936A028160809314
:10168000690210926601609365018091BC008F70C1
:10169000806A8093BC0080916A0290916B02892BD2
:1016A000D1F7662379F0A7E6B1E0FA016150262F61
:1016B00030E02F5F3F4F240F351F8D918193E2174C
:1016C000F307D9F708959091BC009E7F9093BC00DA
:1016D0009091BC009F70906A9093BC009091BC0068
:1016E00097FFFCCF8E7F8093BB008091BC008F70F2
:1016F00080688093BC008091BC0087FFFCCF809104
:10170000B900883189F081E09091BC009F70906DA4
:101710009093BC009091BC0094FFFCCF9091BC00D2
:1017200091609093BC000895662381F0FA01819145
:101730008093BB008091BC008F7080688093BC0058
:101740008091BC0087FFFCCF615089F780E0DCCF3F
:101750009091BC009E7F9093BC009091BC009F70C4
:10176000906A9093BC009091BC0097FFFCCF816081
:101770008093BB008091BC008F7080688093BC0018
:101780008091BC0087FFFCCF8091B900803469F064
:1017900081E09091BC009F70906D9093BC009091FF
:1017A000BC0091609093BC0008956230B8F0FA01DB
:1017B0006250862F90E00196480F591F8091BC001F
:1017C0008F70806C8093BC008091BC0087FFFCCF41
:1017D0008091BB008193E417F50781F78091BC00ED
:1017E0008F7080688093BC008091BC0087FFFCCF25
:1017F0008091BB00FA01808380E0CBCF1F920F92D3
:101800000FB60F9211242F933F934F935F936F93D3
:101810007F938F939F93AF93BF93EF93FF938091A9
:10182000B900E82FE87F8E2F90E0893C9105E8F41D
:10183000FC01EC5CFF4F0C94B117E091E80181E0F2
:101840008E0FF0E08093E801E751FE4F8081809396
:10185000BB009091E8018091E701981790F5809185
:10186000BC008F70806C8093BC00FF91EF91BF91A2
:10187000AF919F918F917F916F915F914F913F9128
:101880002F910F900FBE0F901F901895E091660159
:1018900081E08E0F809366018091BB00F0E0E959F2
:1018A000FE4F80838091BC008F70806D8093BC0060
:1018B00010926B0210926A02D8CF809169028093D5
:1018C000BB008091BC008F7080688093BC00CDCF3E
:1018D000E091E8018091E701E81720F781E08E0FA1
:1018E0008093E801F0E0E751FE4F8081E8CF8091DE
:1018F000BC008F70806C8093BC0010926B021092C1
:101900006A02B3CF8091BC008F7080688093BC0066
:1019100010926B0210926A02A8CF2091660130E00B
:101920008091650190E001972817390754F697CF09
:10193000E091660121E02E0F209366018091BB00AB
:10194000F0E0E959FE4F8083EACF85E090E0909384
:101950006B0280936A02109266018091BC008F70C6
:10196000806C8093BC0081CF8091BC008F70806CB4
:101970008093BC00E0916301F0916401309709F419
:1019800097CF67E671E080916601099591CF84E079
:1019900090E090936B0280936A02E0916101F09174
:1019A0006201309731F069EE71E080E8099580932B
:1019B000E701E0E0F0E081E045CFE091660181E001
:1019C0008E0F809366019091BB00F0E0E959FE4FC5
:1019D000908387FD76CF43CF80916A0290916B020E
:1019E000089507C0E7EBFBE03197F1F700C0000076
:1019F00001970097B9F7089580E090E00E94A81A37
:101A000090E0A0E0B0E08093570190935801A0933C
:101A10005901B0935A0110923A0110923B01109271
:101A20003C0110923D0181E090E00E94A81A90E0F4
:101A3000880F991F092E000CAA0BBB0B8093530132
:101A400090935401A0935501B093560182E090E029
:101A50000E94A81A8093520183E090E00E94A81A85
:101A600080935B0184E090E00E94A81A90E0A0E0DF
:101A7000B0E08093140190931501A0931601B093E8
:101A8000170185E090E00E94A81A282F30E0ABE112
:101A9000B7EB0E94B71760931801709319018093F8
:101AA0001A0190931B0186E090E00E94A81A282F4B
:101AB00030E0ABE1B7EB0E94B71760934E01709333
:101AC0004F0180935001909351010895CF92DF927E
:101AD000EF92FF92CF93DF93DC011196EC91119777
:101AE0004E2F50E04631510540F080E0DF91CF911C
:101AF000FF90EF90DF90CF900895FA01E350FF4FF1
:101B00000C94B11789E78093600180E691E090938F
:101B10007B0280937A0281E0E9CF2A9886E08EBD2D
:101B20000DB407FEFDCF8EB52A9A2A9880E68EBDA9
:101B30000DB407FEFDCF8EB52A9A25E09FEF2A98B7
:101B40002EBD0DB407FEFDCF8EB59EBD0DB407FEB4
:101B5000FDCF8EB52A9A8370833039F62A982EBD30
:101B60000DB407FEFDCF8EB59EBD0DB407FEFDCFB3
:101B70008EB52A9AE4CF2091100130911101409145
:101B80001201509113011296AC91B0E00E94C61759
:101B900060934A0170934B0180934C0190934D01E7
:101BA000C0904A01D0904B01E0904C01F0904D0163
:101BB0008091100190911101A0911201B091130137
:101BC0003CE0B695A795979587953A95D1F7D82F8C
:101BD000882309F48ACFC0E0C701B6010E94FF073D
:101BE0008AE090E0E7EBFBE03197F1F700C00000FE
:101BF0000197C1F7F0E1DF0EE11CF11CCF5FDC13B0
:101C0000EBCF73CF2091100130911101409112015F
:101C1000509113011296AC91B0E00E94C6176093E8
:101C20004A0170934B0180934C0190934D0180E0E9
:101C30005DCF60914A0170914B0180914C01909170
:101C40004D0112964C910E94F90680914A019091A3
:101C50004B01A0914C01B0914D010196A11DB11D08
:101C600080934A0190934B01A0934C01B0934D0196
:101C700080E03CCF12968C918093490180E036CF72
:101C80002091490112966C91822F90E00E94B01A27
:101C900080E02CCF80E090E00E94A81A90E0A0E0C5
:101CA000B0E08093570190935801A0935901B093ED
:101CB0005A0110923A0110923B0110923C0110928D
:101CC0003D0181E090E00E94A81A90E0880F991FE2
:101CD000092E000CAA0BBB0B809353019093540167
:101CE000A0935501B093560182E090E00E94A81A9B
:101CF0008093520183E090E00E94A81A80935B01D8
:101D000084E090E00E94A81A90E0A0E0B0E0809308
:101D1000140190931501A0931601B093170185E06B
:101D200090E00E94A81A282F30E0ABE1B7EB0E94A8
:101D3000B717609318017093190180931A0190935B
:101D40001B0186E090E00E94A81A282F30E0ABE14A
:101D5000B7EB0E94B71760934E0170934F018093C9
:101D600050019093510180E0C1CE80914A01909141
:101D70004B01A0914C01B0914D012A9823E02EBD5A
:101D80000DB407FEFDCF2EB5AEBD0DB407FEFDCFE1
:101D90002EB59EBD0DB407FEFDCF2EB58EBD0DB484
:101DA00007FEFDCF8EB58FEF8EBD0DB407FEFDCFC4
:101DB0008EB52A9A8093600180914A0190914B01DF
:101DC000A0914C01B0914D010196A11DB11D8093D0
:101DD0004A0190934B01A0934C01B0934D0180E6D2
:101DE00091E090937B0280937A0281E07FCE809194
:101DF000490190E00E94A81A8093600180E691E07A
:101E000090937B0280937A0281E070CE10925D0104
:101E100081E080930A0115BC14BC16BC10928100AD
:101E20001092800010928500109284005ECE16966B
:101E30008C9180935E0110925F01813128F080E1E6
:101E400080935E018FEF52CE8FEF50CE20915F01D5
:101E500030915E01231790F4662381F0DC01620F5C
:101E600002C0261749F08D91E22FF0E0E45EFE4FAC
:101E700080832F5F2317A8F320935F0181E0231352
:101E800080E0089516BC84B5826084BDEEE6F0E083
:101E900080818260808360918400709185002091B0
:101EA0000C0130910D0140910E0150910F0180E025
:101EB00090E00E94701727BD85B5846085BD0895A8
:101EC000E1E8F0E0808184608083109285001092C8
:101ED0008400EFE6F0E080818160808308951F92A6
:101EE0000F920FB60F9211248F939F93AF93BF93CE
:101EF0008091320190913301A0913401B09135016C
:101F00000196A11DB11D8093320190933301A093DE
:101F10003401B0933501BF91AF919F918F910F9094
:101F20000FBE0F901F9018951F920F920FB60F9231
:101F300011240F931F932F933F934F935F936F93AE
:101F40007F938F939F93AF93BF9380915201813082
:101F500009F4A2C08091420190914301A0914401F3
:101F6000B09145010196A11DB11D8093420190934E
:101F70004301A0934401B093450180910C019091DD
:101F80000D01A0910E01B0910F01409142015091BD
:101F9000430160914401709145010197A109B10984
:101FA00084179507A607B70708F473C081E08093EC
:101FB0000B018091530190915401A0915501B09172
:101FC000560140914201509143016091440170914A
:101FD0004501840F951FA61FB71F80933E01909364
:101FE0003F01A0934001B093410180910C01909179
:101FF0000D01A0910E01B0910F0140913E01509151
:102000003F0160914001709141010197A109B1091F
:1020100084179507A607B70758F50091420110915C
:1020200043012091440130914501809153019091E9
:102030005401A0915501B091560140910C0150916D
:102040000D0160910E0170910F01800F911FA21F71
:10205000B31F0196A11DB11D841B950BA60BB70BD9
:1020600080933E0190933F01A0934001B0934101C2
:10207000BF91AF919F918F917F916F915F914F91A0
:102080003F912F911F910F910F900FBE0F901F90B6
:10209000189510920B01ECCF4091420150914301F1
:1020A00060914401709145014150510961097109E4
:1020B0004093420150934301609344017093450162
:1020C000409142015091430160914401709145015A
:1020D00080930B01CDCFCF92DF92EF92FF92CF93FF
:1020E000DF9380910A01813009F48EC18091320121
:1020F00090913301A0913401B0913501892B8A2B45
:102100008B2B09F470C010920B01109232011092C7
:1021100033011092340110923501C8E9D2E028E56C
:1021200033E0FE01DF0112971C9211961C9210827F
:10213000339683E0E835F807A9F78FEF8093EF0235
:102140008093F2028093F5028091C00085FFFCCF5E
:102150001092C6008091C00085FFFCCF1092C6008F
:102160008091C00085FFFCCF1092C6008091C00016
:1021700085FFFCCF1092C6009FEF8091C00085FFC5
:10218000FCCF9093C6008091C00085FFFCCFFE017C
:10219000329780818093C6008091C00085FFFCCF7C
:1021A000FE01319780818093C6008091C00085FF39
:1021B000FCCF88818093C60023962C173D07E9F653
:1021C00024E030E09FEF8091C00085FFFCCF90932A
:1021D000C60021503109B9F7DF91CF91FF90EF9000
:1021E000DF90CF900895E0918400F0918500C09039
:1021F0003601D0903701E0903801F09039012091FC
:102200003201309133014091340150913501AFEFEB
:10221000BFEF0E94C617DC01CB018E0F9F1FA11DCF
:10222000B11DC80ED91EEA1EFB1EC0923601D09207
:102230003701E0923801F092390140913601509116
:1022400037016091380170913901809118019091A6
:102250001901A0911A01B0911B01481759076A078B
:102260007B0708F444C080914701811138C08091F8
:102270003A0190913B01A0913C01B0913D01019642
:10228000A11DB11D80933A0190933B01A0933C01A5
:10229000B0933D018091140190911501A091160118
:1022A000B091170140913A0150913B0160913C017E
:1022B00070913D010197A109B10984179507A607FF
:1022C000B70740F410923A0110923B0110923C0182
:1022D00010923D0180915B01843009F4CDC01092D1
:1022E0003601109237011092380110923901809115
:1022F0005201813009F458C01092420110924301FA
:102300001092440110924501809142019091430145
:10231000A0914401B0914501409153015091540165
:102320006091550170915601840F951FA61FB71F2C
:1023300080933E0190933F01A0934001B0934101EF
:1023400081E080930B0110923201109233011092C0
:1023500034011092350116BC84B5826084BD809131
:102360006E00826080936E006091840070918500A1
:1023700020910C0130910D0140910E0150910F01FF
:1023800080E090E00E94701727BD85B5846085BD10
:1023900010928500109284007894DF91CF91FF9085
:1023A000EF90DF90CF90089580910C0190910D01F6
:1023B000A0910E01B0910F010197A109B10980937D
:1023C000420190934301A0934401B0934501809151
:1023D000420190914301A0914401B0914501409187
:1023E0005301509154016091550170915601841B25
:1023F000950BA60BB70B80933E0190933F01A093E2
:102400004001B09341019CCF10920A011092360115
:1024100010923701109238011092390180935D01BA
:1024200080918100846080938100109285001092D9
:10243000840080916F00816080936F0016BC84B52A
:10244000826084BD80916E00826080936E00609196
:1024500084007091850020910C0130910D01409114
:102460000E0150910F0180E090E00E94701727BD8F
:1024700085B5846085BD3ACE80915C01811104C030
:1024800081E080935C012BCF10925C0128CF1F92DA
:102490000F920FB60F9211242F933F934F935F9398
:1024A0006F937F938F939F93AF93BF93EF93FF931C
:1024B00080915D01823099F00E946B10FF91EF9145
:1024C000BF91AF919F918F917F916F915F914F914C
:1024D0003F912F910F900FBE0F901F9018958091F4
:1024E00048018F5F8093480180914801833030F329
:1024F00081E080930A01109248010E946B10DECFA8
:10250000E99AE9E6F0E08081886080837894089514
:10251000CF92DF92EF92FF920F931F939091C000A2
:1025200095FFFCCF1092C6009091C00095FFFCCFA4
:102530001092C6009091C00095FFFCCF1092C6008B
:102540009091C00095FFFCCF1092C6002A9893E0AE
:102550009EBD0DB407FEFDCF9EB58EBD0DB407FE2A
:10256000FDCF8EB57EBD0DB407FEFDCF8EB56EBD21
:102570000DB407FEFDCF8EB5CA01880F991F840FD9
:10258000951F6C01E12CF12C892BA1F100E010E0EA
:1025900098019FEF8091C00085FFFCCF9093C6000B
:1025A0008091C00085FFFCCF9EBD0DB407FEFDCF1E
:1025B0008EB58093C6008091C00085FFFCCF9EBD84
:1025C0000DB407FEFDCF8EB58093C6008091C0008C
:1025D00085FFFCCF9EBD0DB407FEFDCF8EB5809369
:1025E000C6000D5F1F4F2F4F3F4F0C151D052E05C9
:1025F0003F0580F22A9A8A0120E030E0011511059A
:102600002105310599F040E050E0BA019FEF80913B
:10261000C00085FFFCCF9093C600405F5F4F6F4FB7
:102620007F4F401751076207730788F31F910F917F
:10263000FF90EF90DF90CF9008954F925F926F924E
:102640007F928F929F92AF92BF92CF92DF92EF9242
:10265000FF92CF93DF9300D000D0CDB7DEB780914B
:102660004601811117C081E08093460180915B0192
:10267000882319F180915B01813051F080915B01D9
:10268000823031F080915B01833011F080915B01E9
:10269000109246010F900F900F900F90DF91CF9105
:1026A000FF90EF90DF90CF90BF90AF909F908F9072
:1026B0007F906F905F904F90089580910601909168
:1026C0000701A0910801B091090189839A83AB8326
:1026D000BC8340903A0150903B0160903C01709067
:1026E0003D01C0901001D0901101E0901201F090D6
:1026F000130160913E0170913F01809140019091E2
:102700004101209102013091030140910401509157
:1027100005010E9460174B015C01A7019601C301EE
:10272000B2010E946017680D791D8A1D9B1D4981A9
:102730005A810E94881210924601ACCF0E94B002CA
:10274000559A8AEFEFE6F7E13197F1F700C0000004
:102750008150C1F755987894089529B130E0A901C6
:1027600002C0559547958A95E2F7CA01817099276D
:1027700051E085270895589A089548991FC088EE1A
:1027800093E0E7EBFBE03197F1F700C00000019721
:10279000C1F7489913C09EE088E10FB6F894A89558
:1027A000809360000FBE90936000FFEF2EE984E2FB
:1027B000F15020408040E1F700C000000895CF9321
:1027C000BC018EEE93E00E94F817EEEEF3E0DF011D
:1027D0000D900020E9F711971C9201900020E9F775
:1027E0003197EE5EF340C1E0CE0F80916A02909186
:1027F0006B02892BD1F782E090E090936B0280937B
:102800006A0286E080936902CC2351F0FF27AF0172
:102810004F5F5F4F6EEE73E089EE91E00E94EF171D
:102820001092E801C093E7018091BC008F70806A2C
:102830008093BC00CF9108951F93CF93DF931F9295
:102840008F938CE291E09F938F93CEEED3E0DF9352
:10285000CF930E940718FE0101900020E9F73197FD
:10286000108209900020E9F72197CE5ED3401C2FFB
:102870001F5F0F900F900F900F900F900F9080910F
:102880006A0290916B02892BD1F782E090E09093DD
:102890006B0280936A0286E080936902112351F0F3
:1028A000DD27AE014F5F5F4F6EEE73E089EE91E082
:1028B0000E94EF171092E8011093E7018091BC008D
:1028C0008F70806A8093BC00DF91CF911F91089533
:1028D00080913101459A449A882379F1459A449A26
:1028E00010926401109263011092620110926101D2
:1028F0008091B9008E7F8093B9008091B9008D7F5F
:102900008093B90087E08093B8008091BC00846018
:102910008093BC0010926B0210926A028091BC00FE
:1029200081608093BC008091BC0080648093BC0077
:10293000789481EA8093BA0008951092640110920D
:10294000630110926201109261018091B9008E7F43
:102950008093B9008091B9008D7F8093B90097E092
:102960009093B8008091BC0084608093BC0010926A
:102970006B0210926A028091BC0081608093BC005F
:102980008091BC0080648093BC0078949093BA00DE
:102990008DEF93E0909364018093630108951F92FB
:1029A0000F920FB60F9211240F900FBE0F901F9031
:1029B0001895089583B7817F8C6083BF83B781604A
:1029C00083BF889508952098289AE8E6F0E08081F2
:1029D00081608083EBE6F0E0808181608083789481
:1029E0000895CF93DF9300D000D0CDB7DEB70E941B
:1029F000FC0CE99A80916900886080936900789462
:102A00000E946705549A519A5C981092C5001092E2
:102A1000C40080EC8093C20088E08093C1001092D3
:102A2000C5001092C4000E947D060E949E13589A11
:102A30000E946814789498E5292E93E0392EE8E9ED
:102A4000F2E0DF0112971C9211961C9210823396CD
:102A500023E0E835F207A9F78FEF8093A702809172
:102A6000C00085FFFCCF1092C6008091C00085FF9A
:102A7000FCCF1092C6008091C00085FFFCCF109261
:102A8000C6008091C00085FFFCCF1092C600E8E927
:102A9000F2E08FEF9091C00095FFFCCF8093C600CD
:102AA0009091C00095FFFCCFDF0112979C9190930D
:102AB000C6009091C00095FFFCCFDF0111979C915B
:102AC0009093C6009091C00095FFFCCF90819093A9
:102AD000C60033962E163F06E9F684E090E02FEF0D
:102AE0003091C00035FFFCCF2093C6000197C1F79D
:102AF00018E10EE0FF24FA9482E0D82EEE24EA9446
:102B000048991DC088EE93E0A7EBBBE01197F1F761
:102B100000C000000197C1F7489911C00FB6F894A2
:102B2000A895109360000FBE009360009FEFAEE980
:102B3000B4E29150A040B040E1F700C000000E9414
:102B40005B0180915D018130D9F6809132019091D5
:102B50003301A0913401B0913501892B8A2B8B2B45
:102B600009F45CC010920B01E8E9F2E0DF01129772
:102B70001C9211961C92108233962E163F06B1F7C6
:102B8000E092EE02E092F102E092F4028091C00045
:102B900085FFFCCF1092C6008091C00085FFFCCF5E
:102BA0001092C6008091C00085FFFCCF1092C60035
:102BB0008091C00085FFFCCF1092C600E8E9F2E0EA
:102BC0008091C00085FFFCCFF092C6008091C000CC
:102BD00085FFFCCFDF0112978C918093C600809116
:102BE000C00085FFFCCFDF0111978C918093C60058
:102BF0008091C00085FFFCCF80818093C600339612
:102C00002E163F06E9F624E030E08091C00085FFF3
:102C1000FCCFF092C60021503109B9F72091320162
:102C2000309133014091340150913501E09184009D
:102C3000F091850080904E0190904F01A09050013E
:102C4000B0905101AFEFBFEF0E94C617DC01CB017E
:102C50008E0F9F1FA11DB11D88159905AA05BB05E3
:102C600008F4CDC0D0925D0115BC14BC16BC109206
:102C700081001092800010928500109284001092C2
:102C80003201109233011092340110923501E8E9BB
:102C9000F2E0DF0112971C9211961C92108233967B
:102CA0002E163F06B1F7E092EF02E092F202E092B8
:102CB000F5028091C00085FFFCCF1092C600809184
:102CC000C00085FFFCCF1092C6008091C00085FF38
:102CD000FCCF1092C6008091C00085FFFCCF1092FF
:102CE000C600E8E9F2E08091C00085FFFCCFF092D9
:102CF000C6008091C00085FFFCCFDF0112978C9148
:102D00008093C6008091C00085FFFCCFDF01119742
:102D10008C918093C6008091C00085FFFCCF80819C
:102D20008093C60033962E163F06E9F624E030E085
:102D30008091C00085FFFCCFF092C6002150310980
:102D4000B9F788EE93E0E7EBFBE03197F1F700C0CD
:102D500000000197C1F7E8E9F2E0DF0112971C9249
:102D600011961C92108233962E163F06B1F7809171
:102D7000C00085FFFCCF1092C6008091C00085FF87
:102D8000FCCF1092C6008091C00085FFFCCF10924E
:102D9000C6008091C00085FFFCCF1092C600E8E914
:102DA000F2E08091C00085FFFCCFF092C6008091D8
:102DB000C00085FFFCCFDF0112978C918093C60085
:102DC0008091C00085FFFCCFDF0111978C9180932B
:102DD000C6008091C00085FFFCCF80818093C60033
:102DE00033962E163F06E9F624E030E08091C000CD
:102DF00085FFFCCFF092C60021503109B9F78091D0
:102E00000B01813009F07CCE10920B0190914601AC
:102E1000911176CE8093460180915B01882389F0E1
:102E200080915B01813051F080915B01823031F003
:102E300080915B01833011F080915B01109246011B
:102E400059CE8091060190910701A0910801B0919F
:102E5000090189839A83AB83BC8380903A01909067
:102E60003B01A0903C01B0903D014090100150907A
:102E70001101609012017090130160913E017091F8
:102E80003F018091400190914101209102013091D8
:102E9000030140910401509105010E9460176B01EC
:102EA0007C01A3019201C501B4010E9460176C0D61
:102EB0007D1D8E1D9F1D49815A810E948812BECFA3
:102EC000DB018F939F930E94C617BF91AF91A29F82
:102ED000800D911DA39F900DB29F900D1124089518
:102EE000A1E21A2EAA1BBB1BFD010DC0AA1FBB1F0E
:102EF000EE1FFF1FA217B307E407F50720F0A21B80
:102F0000B30BE40BF50B661F771F881F991F1A94EC
:102F100069F760957095809590959B01AC01BD0116
:102F2000CF010895052E97FB1EF400940E94A91767
:102F300057FD07D00E94701707FC03D04EF40C9485
:102F4000A91750954095309521953F4F4F4F5F4FB2
:102F5000089590958095709561957F4F8F4F9F4F05
:102F60000895EE0FFF1F0590F491E02D0994A29FA4
:102F7000B001B39FC001A39F700D811D1124911D4D
:102F8000B29F700D811D1124911D08950E94B717E5
:102F9000A59F900DB49F900DA49F800D911D1124AD
:102FA0000895FC0188279927E89421912032E9F3BC
:102FB000293010F02E30C8F32B3241F02D3239F485
:102FC000689404C00E94FF17820F911D2191205325
:102FD0002A30C0F31EF4909581959F4F0895FB0110
:102FE000DC0102C001900D9241505040D8F7089585
:102FF000FB01DC0101900D920020E1F708957AE0D9
:10300000979F902D879F802D910D11240895AEE0FC
:10301000B0E0EDE0F8E10C94CC1A0D891E8986E051
:103020008C831A8309838FEF9FE79E838D83AE0184
:10303000475E5F4F6F89788DCE0101960E942A18F6
:103040002F813885F801E20FF31F10822E96E4E0FD
:103050000C94E81AACE0B0E0E0E3F8E10C94BE1A9E
:103060007C016B018A01FC0117821682838181FF3A
:10307000BDC1CE0101964C01F7019381F60193FD8C
:10308000859193FF81916F01882309F4ABC185324B
:1030900039F493FD859193FF81916F01853229F475
:1030A000B70190E00E94121AE7CF512C312C20E09A
:1030B0002032A0F48B3269F030F4803259F0833240
:1030C00069F420612CC08D3239F0803339F42160ED
:1030D00026C02260246023C0286021C027FD27C0AD
:1030E00030ED380F3A3078F426FF06C0FAE05F9EE4
:1030F000300D1124532E13C08AE0389E300D112458
:10310000332E20620CC08E3221F426FD6BC1206468
:1031100006C08C3611F4206802C0883641F4F601EE
:1031200093FD859193FF81916F018111C1CF982FFC
:103130009F7D9554933028F40C5F1F4FFFE3F98374
:103140000DC0833631F0833771F0833509F05BC0F1
:1031500022C0F801808189830E5F1F4F442443946D
:10316000512C540115C03801F2E06F0E711CF801AA
:10317000A080B18026FF03C0652D70E002C06FEF14
:103180007FEFC5012C870E94071A2C0183012C8533
:103190002F77222E17C03801F2E06F0E711CF80154
:1031A000A080B18026FF03C0652D70E002C06FEFE4
:1031B0007FEFC5012C870E94FC192C012C8520680B
:1031C000222E830123FC1BC0832D90E04816590654
:1031D000B0F4B70180E290E00E94121A3A94F4CF62
:1031E000F50127FC859127FE81915F01B70190E0F1
:1031F0000E94121A31103A94F1E04F1A510841140A
:10320000510471F7E5C0843611F0893639F5F801BB
:1032100027FF07C060817181828193810C5F1F4FFE
:1032200008C060817181072E000C880B990B0E5F1E
:103230001F4F2F76722E97FF09C09095809570953D
:1032400061957F4F8F4F9F4F2068722E2AE030E0AC
:10325000A4010E944A1AA82EA81844C0853729F450
:103260002F7EB22E2AE030E025C0F22FF97FBF2E4C
:103270008F36C1F018F4883579F0B4C0803719F072
:10328000883721F0AFC02F2F2061B22EB4FE0DC0C1
:103290008B2D8460B82E09C024FF0AC09F2F966032
:1032A000B92E06C028E030E005C020E130E002C0C1
:1032B00020E132E0F801B7FE07C0608171818281B0
:1032C00093810C5F1F4F06C06081718180E090E0A8
:1032D0000E5F1F4FA4010E944A1AA82EA818FB2DAA
:1032E000FF777F2E76FE0BC0372D3E7FA51450F45E
:1032F00074FE0AC072FC08C0372D3E7E05C0BA2C91
:10330000372D03C0BA2C01C0B52C34FF0DC0FE010F
:10331000EA0DF11D8081803311F4397E09C032FF3E
:1033200006C0B394B39404C0832F867809F0B39495
:1033300033FD13C030FF06C05A2CB31418F4530CDD
:103340005B18B32CB31468F4B70180E290E03C87BB
:103350000E94121AB3943C85F5CFB31410F43B18B5
:1033600001C0312C34FF12C0B70180E390E03C87EC
:103370000E94121A3C8532FF17C031FD03C088E756
:1033800090E002C088E590E0B7010CC0832F8678FA
:1033900059F031FF02C08BE201C080E237FD8DE2BF
:1033A000B70190E00E94121AA51438F4B70180E327
:1033B00090E00E94121A5A94F7CFAA94F401EA0DF1
:1033C000F11D8081B70190E00E94121AA110F5CF83
:1033D000332009F451CEB70180E290E00E94121A26
:1033E0003A94F6CFF7018681978102C08FEF9FEF65
:1033F0002C96E2E10C94DA1AFC01059061507040C1
:103400000110D8F7809590958E0F9F1F0895FC01AD
:103410006150704001900110D8F7809590958E0F03
:103420009F1F08950F931F93CF93DF93FB01238179
:1034300021FD03C08FEF9FEF28C022FF16C04681F9
:103440005781248135814217530744F4A081B1810B
:103450009D012F5F3F4F318320838C9326813781DD
:103460002F5F3F4F3783268310C0EB01092F182FA2
:103470000084F185E02D0995892BE1F68E819F81ED
:1034800001969F838E83812F902FDF91CF911F9183
:103490000F910895FA01AA27283051F1203181F1C6
:1034A000E8946F936E7F6E5F7F4F8F4F9F4FAF4F4C
:1034B000B1E03ED0B4E03CD0670F781F891F9A1F5F
:1034C000A11D680F791F8A1F911DA11D6A0F711D13
:1034D000811D911DA11D20D009F468943F912AE01F
:1034E000269F11243019305D3193DEF6CF01089507
:1034F000462F4770405D4193B3E00FD0C9F7F6CF38
:10350000462F4F70405D4A3318F0495D31FD4052FF
:10351000419302D0A9F7EACFB4E0A6959795879595
:1035200077956795BA95C9F7009761057105089574
:103530009B01AC010A2E0694579547953795279520
:10354000BA95C9F7620F731F841F951FA01D0895B8
:10355000F999FECF92BD81BDF89A992780B508955B
:10356000262FF999FECF1FBA92BD81BD20BD0FB69F
:10357000F894FA9AF99A0FBE019608952F923F9205
:103580004F925F926F927F928F929F92AF92BF9273
:10359000CF92DF92EF92FF920F931F93CF93DF931F
:1035A000CDB7DEB7CA1BDB0B0FB6F894DEBF0FBE7C
:1035B000CDBF09942A88398848885F846E847D84C9
:1035C0008C849B84AA84B984C884DF80EE80FD80CB
:1035D0000C811B81AA81B981CE0FD11D0FB6F89441
:0E35E000DEBF0FBECDBFED010895F894FFCF02
:1035EE00FF5A600000002000000001012C010000C5
:1035FE0000900000010000002823000048656C6C5C
:10360E006F2C20555342210000000000256400005D
:00000001FF
